:020000040800F2
:10000000180B0020ED010008451B0008E31500084F
:10001000411B00080F1300084F27000800000000D4
:10002000000000000000000000000000251D000886
:100030001313000800000000CD1B0008391E000843
:10004000070200080702000807020008070200086C
:10005000070200080702000807020008070200085C
:100060002913000807020008070200080702000819
:10007000070200080702000807020008070200083C
:10008000070200080702000807020008070200082C
:10009000070200080702000807020008070200081C
:1000A000070200080702000807020008070200080C
:1000B00007020008070200089D1E0008070200084A
:1000C00007020008070200080702000807020008EC
:1000D00007020008152300087523000839250008C9
:1000E00007020008070200080702000807020008CC
:1000F000FD1E0008070200080702000807020008AA
:100100000702000807020008CD1E000807020008C9
:10011000070200080702000807020008070200089B
:10012000070200080702000807020008070200088B
:1001300000F002F800F04AF80AA090E8000C8244AF
:100140008344AAF10107DA4501D100F03FF8AFF28C
:10015000090EBAE80F0013F0010F18BFFB1A43F0A5
:1001600001031847185E0000385E0000103A24BFF3
:1001700078C878C1FAD8520724BF30C830C144BF0C
:1001800004680C607047000000230024002500264E
:10019000103A28BF78C1FBD8520728BF30C148BFEA
:1001A0000B607047662905F02C86642900F04C80AE
:1001B000002070471FB500F067FB040000200021FD
:1001C00004F082FDE0601FBD10B510BD00F078FCAA
:1001D0001146FFF7EFFF02F05BFD00F096FC03B461
:1001E000FFF7F2FF03BC02F0E3FA00000948804782
:1001F00009480047FEE7FEE7FEE7FEE7FEE7FEE709
:10020000FEE7FEE7FEE7FEE704480549054A064B20
:10021000704700003D1E000831010008180500204D
:10022000180B002018070020180700207047000056
:100230000FB4044910B503AA029800F013FB10BCD8
:100240005DF814FB800000202DE9F04106460024F3
:1002500010687529314616A510D0AFF3008000282C
:1002600002DA404213A507E031688A0701D512A5DA
:1002700002E0490704D511A5012401E0AFF3008095
:1002800000210A2206F1240709E0B0FBF2FCB0FBD2
:10029000F2F302FB1C00303078541846491C002849
:1002A000F3D123462A463046BDE8F04100F073B84A
:1002B000000000002D0000002B00000020000000C6
:1002C0002DE9F0410F460546002028622846E968DE
:1002D000884770B3252805D0D5E901219047286AC1
:1002E000401CF2E7E9682846002688476C28044647
:1002F0000AD0682C08D04C2C35D06A2C31D0742C04
:1003000031D07A2C2FD016E0E96806462846884777
:10031000B042044608D16C2E23D04FF480662846A4
:10032000E9688847044606E06C2E03D04FF48076D7
:1003300001E01EE04026E4B1A4F14100192802D8F2
:10034000203446F400663A46214628462E60FFF7E0
:1003500029FF60B1012808D0FF1D27F007070837E3
:10036000B4E78026DBE70026D9E73F1DAEE720464D
:10037000B2E7286ABDE8F081704770477047704760
:1003800010B500F085FA006810BD10B5044600F005
:100390007FFA046010BD2DE9F0470D46994692465C
:1003A000044600F124080168880604D5E06921F0BC
:1003B0001001216000E00120A84201DD471B00E0A0
:1003C0000027A1697A1902EB0900081AA0612078B8
:1003D000C00602D42046AFF30080002608E0D4E92E
:1003E00001211AF806009047206A401C761C206202
:1003F0004E45F4DB2078C0060AD52046AFF30080D6
:1004000006E0D4E9012130209047206A401C206298
:10041000381EA7F10107F4DC07E0D4E9012118F840
:1004200005009047206A401C2062281EA5F10105A6
:10043000F3DC2046AFF300802078000602D50220CE
:10044000BDE8F0870120FBE770472DE9FF4F0C4620
:100450001E464FF0FF378BB0D2E90001DDF8608017
:100460000A908A46C1F30A5505B93D46002108465F
:100470004FF00000BAF1000F00F4400005DA00EB85
:1004800080004FF4400101EA50004FEA9059B9F161
:10049000010F00DDB9460A9850EA4A000ED044F632
:1004A0001050A5F2FF3545432F14B8F1000F1ED0B0
:1004B0007542291E1EDDC9F100021CE0B8F1010FD2
:1004C0004FF0000001D0302103E0F24305E0215459
:1004D000401CB042FBDB30460022002121540B9926
:1004E000C1F80880C1E900200FB0BDE8F08FBD1B46
:1004F0006D1CDEE74A4600DA694206A800F06AFA97
:1005000006AB93E8070003AB83E8070050460A995F
:1005100000F042FB8DE80700A0F500501F38009066
:100520000398002D09DD42F21F014A46084403A941
:100530000390684600F0A1FD08E0A0F500504A468F
:100540001F3803A90390684600F0ABFD8DE8070053
:100550000004000C03D04FF0FF30410800E01046CB
:10056000B8F1000F03D00022009215461EE0751E60
:1005700005D400F091F9303262556D1EF9D5B346BD
:100580000122084302D000227F1C04E0207830289A
:1005900001D100227F1E002A099786D01DE0112D6F
:1005A00007DA00F079F9303262556D1C50EA010229
:1005B000F5D1084302D00098C8B10EE00021681EB2
:1005C00005E0235C625C63542254401E491C814256
:1005D000F7DBAB46A81B401E0990002004F80B0077
:1005E0000B98099AC0F80880C0E9002B7CE7112617
:1005F0004FF0000859E72DE9F04F88460446D21D18
:1006000022F0070191B0D1E90001CDE90A0102F021
:10061000A0F802460B98C00F01D02D2007E02068FB
:10062000810701D52B2002E0202101EAC000032A26
:10063000099001D0072A05DB03464146204600F019
:1006400089F90BE12078800601D5E06900E00620F9
:10065000B8F1650F814606D0B8F1660F18D0B8F131
:10066000670F70D131E00020B9F1110F009001DB6C
:10067000112301E009F101030AAA01A90CA8FFF75F
:10068000E4FEDDE90C70002609F10105834647E030
:1006900001204B4600904FF000470AAA01A90CA880
:1006A000FFF7D3FEDDE90DB00C995D46002610B9C9
:1006B00009F101000D18B9EB050003D4C0F1FF36B4
:1006C00009F10105A5EB09002BE0B9F1010F01DAF1
:1006D0004FF001090020B9F1110F0090484601DDEB
:1006E000112300E003460AAA01A90CA8FFF7ADFEFA
:1006F000DDE90C704D4600268346207800070AD4B9
:10070000AB4500DA5D4601A8012D04DD411911F861
:10071000011C302907D04F4502DA17F1040F04DA23
:10072000012082460FE06D1EEEE7002F02DCED1B7C
:100730003E4403E0781CA84200DD7D1CB81B00F19C
:10074000010A4FF000472078000703D4AA4501DBD7
:100750004FF0FF3A0021B7F1004F0DF143088DF83B
:10076000431024D002202B23002F01DA7F422D23B7
:100770000A21021EA0F1010000DC5FB197FBF1FC31
:1007800097FBF1F201FB1C7C17460CF1300C08F8CA
:1007900001CDEEE7A8F1010003702188090501D51C
:1007A000452100E06521A0F1010800F8011C09982D
:1007B0000FA9A1EB0807FF1D00B10120411901EBB2
:1007C000EA70A1693844081A401EA0612078C0066A
:1007D00002D42046AFF30080099828B1D4E9012162
:1007E0009047206A401C20622078C00622D520460F
:1007F000AFF300801EE0002E04DBB34502DD01A84C
:10080000805D00E03020D4E901219047206A401C3F
:100810002062761CAAF101005FEA000A0AD100F00A
:1008200033F8C0680168405CD4E901219047206A30
:10083000401C2062281EA5F10105DCDC07E0D4E99C
:10084000012118F8010B9047206A401C2062381ED5
:10085000A7F10107F3DC2046AFF30080032011B0BD
:1008600043E60000074B70B50D467B4400F05FF88F
:100870000446284600F01CF910B14FF0FF3070BD5F
:10088000204670BD0724000000487047D4040020B3
:1008900000487047B404002030B5B0F10A024FEAB6
:1008A000900E71F100034EEA817EB0EB0E0061EB19
:1008B00091014FEA101E4EEA017E10EB0E0041EB53
:1008C00011114FEA102E4EEA016E10EB0E0041EBB3
:1008D00011214FEA104E4EEA014E10EB0E0041EB93
:1008E0001141401841F100014FEAD00040EA417047
:1008F0004FEAD10110EB80054FEA810444EA90747D
:1009000044EB01046D1944EB0404521BA3414FF066
:10091000000348BF0A3200D530BD401C41F1000140
:1009200030BD000001694A1C02610878704700B5BB
:100930008FB0CDE901310021059105497944CDE918
:10094000031011466846FFF7BBFC0FB000BD000066
:10095000E5FFFFFF2DE9F0411F460446032601682D
:10096000072A01F4006004DB08B116A505E016A50E
:1009700003E008B115A500E015A521F010002060E6
:10098000A069C01EA0610FB1401EA0612046AFF358
:1009900000804FB1D4E9012138469047206A401CBD
:1009A0002062C01C206206E0206AFAE7D4E9012137
:1009B00015F8010B9047761EF8D22046AFF3008061
:1009C000BDE8F0814E414E006E616E00494E46001A
:1009D000696E66002DE9F047814616468AB03348B5
:1009E00078440DC88DE80D0030487844801C03AC75
:1009F0000DC884E80D0041F69B300844372190FB78
:100A0000F1F290FBF1F5A5F1800501FB12041B3C0E
:100A100002D56442012000E00020DFF890A080466B
:100A20000027FA44AAF1BE0A0DE0E00709D03246D9
:100A3000684607EB47010AEB810100F032FB8DE8C5
:100A4000070064107F1C002CEFD1184F7F44AC3F8F
:100A500018E0E80714D007EB04100DF1180A90E82D
:100A60000E008AE80E00C068F04201D19819089083
:100A7000324606A903A800F014FB03AB83E8070085
:100A80006D10641C002DE4D132466946B8F1000FA8
:100A900003A802D000F0F1FA01E000F002FBC9E97E
:100AA0000001C9F808200AB0BDE8F08780550000B1
:100AB000007B00F08000704700487047B4040020BD
:100AC0007546FFF7F9FFAE4605006946534620F02C
:100AD0000700854618B020B5FFF796FBBDE820401B
:100AE0004FF000064FF000074FF000084FF0000BEA
:100AF00021F00701AC46ACE8C009ACE8C009ACE89D
:100B0000C009ACE8C0098D4670470446AFF30080C9
:100B10002046FFF764FB00004FF0013C50F8042B27
:100B200051F8043B9A4221D1A2EB0C03934313EA00
:100B3000CC1317D150F8042B51F8043B9A4215D12D
:100B4000A2EB0C03934313EACC130BD150F8042B04
:100B500051F8043B9A4209D1A2EB0C03934313EAE8
:100B6000CC13DBD04FF00000704700BFD01A01BAA1
:100B7000B1FA81F101F0180122FA01F0CB40C1F184
:100B80002001DBB2C0B2C01A2CFA01F3D11A914392
:100B900011EAC311E6D170475FEA400C08BF91F03B
:100BA000000F4FEA8C234FEAC12243EA51514FEA2A
:100BB0001C5018BF00F5F0404FEA300018BF41F05C
:100BC00000415FEA6C5C00F02980BCF1FF3F08BF88
:100BD00040F080407047130C06BF12044FF0100C19
:100BE0004FF0000C130E04BF12020CF1080C130F8F
:100BF00004BF12010CF1040C930F04BF92000CF11E
:100C0000020CD30F04BF52000CF1010C11464FF03F
:100C10000002A0F11F00A0EB0C00704711F0004F84
:100C200008BF704731F000413FF4D5AF0B0C06BF51
:100C300009044FF0100C4FF0000C0B0E04BF09021A
:100C40000CF1080C0B0F04BF09010CF1040C8B0F05
:100C500004BF89000CF1020CCB0F04BF49000CF15A
:100C6000010CCCF12003A0EB0C0022FA03F302FAF2
:100C70000CF241EA030100F10100704720F07F4CC3
:100C800080EA030023F07F47ACEB070303F57C53B6
:100C900000F0004003F1FF032DE980494FEA154BB6
:100CA00009B44FEA144325EA0B4E24EA03480FF235
:100CB000042606EB132749083E785FEA320203FB5D
:100CC0000667C7F5000707FB06F64FEA54374FEAF9
:100CD000D64606F1020607FB066CCCF1005C4FEA33
:100CE0001C472CEA074C07FB06F40CFB06F504EB4B
:100CF00015464FEA961634BF00204FF000404FEAE9
:100D0000D13706FB07FC4FEA1C4C0CFB0BF7D21B40
:100D100003FB0CF761EB07010CFB0EF7B0EB074090
:100D200072EB17420CFB08F734BFA2EB0742B2EBA1
:100D3000074261EB17414FEA0C444FEA910706FB6B
:100D400007FC4FEA1C4C0CFB0BF7B0EBC74072EBF7
:100D5000573203FB0CF734BFA2EBC742B2EBC742DA
:100D600061EB57310CFB0EF7B0EBC70072EB57721B
:100D70000CFB08F734BFA2EBC702B2EBC70261EB72
:100D80005771039F4FEA816141EA921104EBCC0451
:100D90004FEAD1374FEA826206FB07FC42EA901223
:100DA0004FEA80604FEA1C4C0CFB0BF7D21B03FB95
:100DB0000CF761EB07010CFB0EF7B0EB074072EB91
:100DC00017420CFB08F734BFA2EB0742B2EB074215
:100DD00061EB17414FEA8C554FEA910704EB9C24D5
:100DE00006FB07FC4FEA1C4C0CFB0BF7B0EBC740B3
:100DF00072EB573203FB0CF734BFA2EBC742B2EBE6
:100E0000C74261EB57310CFB0EF7B0EBC70072EB3A
:100E100057720CFB08F734BFA2EBC702B2EBC70254
:100E200061EB577115EB4C254FEA816141EA921154
:100E30004FEA82624FEAD13742EA901206FB07FC82
:100E400044F100044FEA80604FEA1C4C0CFB0BF7A6
:100E5000D21B03FB0CF761EB07010CFB0EF7B0EBA9
:100E6000074072EB17420CFB08F734BFA2EB0742B6
:100E7000B2EB074261EB174115EB1C154FEA8131CC
:100E800041EA92414FEA823242EA90424FEA803090
:100E90004FEA0C7644F1000448EA03434EEA0B485B
:100EA0004FF0000EB2EB080C71EB030724BF624653
:100EB00039464EEB0E0E4FF0000B001852414941DF
:100EC0004BEB0B0BB2EB080C71EB03077BF1000B48
:100ED00024BF624639464EEB0E0E4FF0000B001851
:100EE000524149414BEB0B0BB2EB080C71EB030782
:100EF0007BF1000B24BF624639464EEB0E0E51EAE1
:100F0000020718BF46F0010616EB0E7655F10002F7
:100F100054F1000103D5BDE88901BDE80088BDE8B2
:100F20008901BDE80048B619524141EB0101A3F126
:100F30000103704780807F7E7D7C7B7A797877762D
:100F400076757473727171706F6E6E6D6C6C6B6AA6
:100F50006A69686867666665646463636261616044
:100F6000605F5F5E5E5D5D5C5C5B5B5A5A595958C1
:100F7000585757565655555554545353525252512B
:100F8000515050504F4F4F4E4E4D4D4D4C4C4C4B81
:100F90004B4B4A4A4A4949494848484747474746C8
:100FA0004646454545444444444343434342424204
:100FB00042414141002B26D4770021D01CB54FEA95
:100FC000370703B44FF010004FF010014FF000004E
:100FD0000FBCBDE810400BF1010BBBF1010F08BFC6
:100FE0005FEA170722BF12F1010211F101014FF070
:100FF000004143F1000300F0004043EA0000704765
:10100000F9D35708DAE746EA064613F1400F4FEAEC
:1010100016461FDD13F1200FDFBF16430A460021DD
:1010200020335B42C8D0C3F1200746EA064602FAE5
:1010300007F74FEA164646EA0706C3F1200722FAE9
:1010400003F201FA07F721FA03F14FF0000342EA35
:101050000702B1E746EA020646EA06464FEA1646A6
:1010600046EA0106BCBF46EA0646360C4FF00003CE
:101070004FF000024FF000019EE72DE9C048934673
:1010800030B491E8380007C831EA400C48BF34EA70
:10109000430C03D5FFF7F2FDFFF78CFFF0BCBDE872
:1010A00000882DE9C048934630B491E8380007C85D
:1010B00010F0804F08BF13F0804F03D100F005F807
:1010C000FFF778FFF0BCBDE8008820F07F4780EA9A
:1010D000030023F07F4C07EB0C03A3F57C5300F0D7
:1010E0000040A3F1FE0392F0000F00F0B38095F0F2
:1010F000000F00F077802DE901494FEA11404FEAD7
:10110000144621EA004800FB06FC24EA064708FBD7
:1011100006F607FB08F800FB07F718EB06484CEB50
:10112000164C4FEA124B18EB07484FEA15464CEBAA
:10113000174022EA0B4E0BFB06FC25EA06470EFB86
:1011400006F607FB0EFE0BFB07F71EEB064E4CEBFD
:10115000164C4FF000061EEB074E4CEB174B18EBEE
:101160000B0840F1000018EB0E0B58EB000840F1A3
:1011700000008F1A4FF000013CBFC943661B14BF2B
:10118000B5EB040C00213CBFC943F61B4FEA1744E2
:101190004EEA8E0E27EA04454FEA1C4704FB07621D
:1011A0002CEA074C05FB07F70CFB05F604FB0CFCCF
:1011B00016EB074642EB174216EB0C4642EB1C427D
:1011C0001BEB060658EB0202414146EA9E0601D59A
:1011D000BDE80189B619524141EB0101A3F10103B8
:1011E000BDE801894FEA14454FEA114724EA054654
:1011F00021EA074C05FB07F406FB07F70CFB06F199
:1012000005FB0CFC11EB074144EB17444FEA124776
:1012100011EB0C4144EB1C4422EA074C05FB07F29E
:1012200006FB07F70CFB06F605FB0CFC16EB074666
:1012300042EB174216EB0C4642EB1C456A1854F180
:10124000000148BF7047B619524141EB0101A3F1BB
:101250000103704795F0000F37D04FEA11424FEA73
:10126000144721EA024624EA074C02FB07F106FB79
:1012700007F70CFB06F402FB0CFC14EB074441EBF4
:1012800017414FEA154714EB0C4441EB1C4125EA8A
:10129000074C02FB07F506FB07F70CFB06F602FB03
:1012A0000CFC16EB074645EB174516EB0C4645EBD9
:1012B0001C42121951F1000148BF7047B619524142
:1012C00041EB0101A3F1010370474FEA14454FEAD6
:1012D000114724EA054621EA074C05FB07F106FB06
:1012E00007F70CFB06F24FF0000605FB0CFC12EBB7
:1012F000074241EB174112EB0C4251EB1C4148BF36
:101300007047921841EB0101A3F10103704700BF40
:10131000FEE7704701B502E00098401E009000987B
:101320000028F9D108BD000010B50021114800F0D7
:101330000CFE00214FF0804000F007FE00210E4817
:1013400000F003FE00210D4800F0FFFD00210C48D5
:1013500000F0FBFD00210B4800F0F7FD4FF47A7020
:1013600001F062FC08A0FEF763FF042000F012F811
:1013700010BD0000002C01400004004000080040A7
:1013800000340140000C0040454E5445520D0A20E7
:10139000000000000149086070470000140401408B
:1013A000002123498279002A3AD00A46126803684C
:1013B0009A430B461A600A1D126803689A430B1D74
:1013C0001A60027911440A6803681A430A60184ACD
:1013D0000832126803689A43154B08331A601A1DC5
:1013E000126803689A43124B0C331A604279102A30
:1013F0000ED11A1F126803681A430D4B08331A6086
:101400001A1D126803681A43094B0C331A600DE069
:101410000749427911440A6803681A430A6005E0E3
:10142000027911440A6803689A430A607047000011
:10143000000401400EB500F053FB0121084600F006
:10144000E7FB0221042000F01DF804200190002099
:101450008DF808000C208DF8090001208DF80A0095
:1014600001A8FFF79DFF08208DF8000000208DF8EF
:1014700001008DF8020001208DF80300684600F09D
:1014800063FB0EBD30B500228B071C0F0F2303FA40
:1014900004F20B4B8C1053F824309343084C8D10FE
:1014A00044F8253023468C1053F824308C07240F41
:1014B00000FA04F42343024C8D1044F8253030BD6B
:1014C000080001402DE9F0410246002500260020D9
:1014D00000230024002791F803C00CF00F0591F8B9
:1014E00003C00CF0100CBCF1000F03D091F802C047
:1014F0004CEA050591F800C0BCF1000F31D014682A
:1015000000202BE04FF0010C0CFA00F3B1F800C002
:101510000CEA03069E4220D183004FF00F0C0CFA18
:1015200003F7BC4305FA03FC4CEA040491F803C03A
:10153000BCF1280F06D14FF0010C0CFA00FCC2F8E8
:1015400014C00AE091F803C0BCF1480F05D14FF078
:10155000010C0CFA00FCC2F810C0401C0828D1D3C2
:101560001460B1F800C0BCF1FF0F34DD54680020F6
:101570002EE000F1080C4FF0010808FA0CF3B1F866
:1015800000C00CEA03069E4221D183004FF00F0CED
:101590000CFA03F7BC4305FA03FC4CEA040491F887
:1015A00003C0BCF1280F05D100F1080C08FA0CF8B3
:1015B000C2F8148091F803C0BCF1480F07D100F1C4
:1015C000080C4FF0010808FA0CF8C2F81080401C13
:1015D0000828CED35460BDE8F081416170470161B5
:1015E000704700BFFEE7000000B589B000200590FD
:1015F0000690079008900290039004900121042027
:1016000000F0E6FA254800F0BBFC1E208DF804002F
:1016100001208DF8050000208DF8060001208DF8CE
:10162000070001A800F090FA4FF6FF70ADF80C002B
:101630000020ADF80800ADF80E00ADF80A0002A9D0
:10164000164800F015FE2020ADF814000020ADF87B
:101650001C00ADF816004FF6FF70ADF81A0005A992
:101660000E4800F08BFD01210C4800F06BFC0721B7
:101670000A4800F0F3FD0021084800F0D4FD0020E6
:1016800006492431088001221146044800F06CFD0F
:101690000021024800F059FC09B000BD00080040DC
:1016A00000B589B000200590069007900890029040
:1016B000039004900121480300F0AAFA234800F0A7
:1016C0005FFC2C208DF8040001208DF805008DF8BA
:1016D00006008DF8070001A800F036FA2020ADF8CA
:1016E0000C000020ADF80800ADF80E00ADF80A00BF
:1016F00002A9164800F0BCFD2020ADF8140000201F
:10170000ADF81C00ADF816002020ADF81A0005A9B0
:101710000E4800F033FD01210C4800F013FC0721B6
:101720000A4800F09BFD1021084800F07CFD0020D5
:1017300006492431088001221146044800F014FDB6
:101740000021024800F001FC09B000BD0034014056
:1017500000B589B00020059006900790089002908F
:10176000039004900121082000F032FA254800F08F
:1017700007FC32208DF8040002208DF805000020BF
:101780008DF8060001208DF8070001A800F0DCF9B3
:101790004FF6FF70ADF80C000020ADF80800ADF872
:1017A0000E00ADF80A0002A9164800F061FD2020E5
:1017B000ADF814000020ADF81C00ADF816004FF68F
:1017C000FF70ADF81A0005A90E4800F0D7FC012102
:1017D0000C4800F0B7FB07210A4800F03FFD10213C
:1017E000084800F020FD002006492431088001222D
:1017F0001146044800F0B8FC0021024800F0A5FBA7
:1018000009B000BD000C004000B589B00020019077
:101810000290039004900690079008900121C8025E
:1018200000F0F6F9334800F0ABFB0121052000F091
:10183000EFF903208DF802004FF48070ADF800003E
:1018400018208DF8030069462B48FFF73BFE4FF444
:1018500080712948FFF7C1FE19208DF8140000207F
:101860008DF815008DF8160001208DF8170005A8D9
:1018700000F06AF94FF44870ADF81C004720ADF84D
:1018800018000020ADF81E00ADF81A008DF82000F9
:1018900006A9184800F0ECFC7020ADF80400012007
:1018A000ADF806009620ADF80A0001A9114800F035
:1018B00065FC08210F4800F0ADFC01210D4800F047
:1018C00035FB01210B4800F03DFB8021094800F069
:1018D000B3FC2021074800F0B8FCFFF785FE00218B
:1018E000044800F032FB0121024800F03AFB09B045
:1018F00000BD0000002C01400008014000B589B087
:1019000000200190029003900490069007900890A8
:101910000121084600F05CF94FF0804000F030FBF8
:101920000121042000F074F903208DF80200012049
:10193000ADF8000018208DF8030069462648FFF72F
:10194000C1FD01212448FFF748FE1C208DF814003A
:1019500001208DF815008DF816008DF8170005A8E8
:1019600000F0F2F84FF44870ADF81C004720ADF8D5
:1019700018000020ADF81E00ADF81A008DF8200008
:1019800006A94FF0804000F073FC7020ADF8040011
:101990000120ADF806009620ADF80A0001A94FF02D
:1019A000804000F0EBFB0821C80600F033FC012169
:1019B000880700F0BBFA8021C80500F03DFC20211B
:1019C000480600F042FCFFF76BFE00214FF080401C
:1019D00000F0BBFA09B000BD0008014000B589B0B5
:1019E0000121042000F014F903208DF802004020AA
:1019F000ADF8000018208DF8030069463648FFF75F
:101A000061FD40213448FFF7E8FD0020019002907D
:101A1000039004900690079008900121022000F0A6
:101A2000D7F82E4800F0ACFA1D208DF814000220E3
:101A30008DF8150000208DF8160001208DF8170094
:101A400005A800F081F84FF44870ADF81C0047205D
:101A5000ADF818000020ADF81E00ADF81A008DF8A2
:101A6000200006A91D4800F003FC7020ADF804001A
:101A70000120ADF806000420ADF808009620ADF86E
:101A80000A000220ADF80C000020ADF80E00ADF801
:101A90001000ADF8120001A9104800F06FFB0821FA
:101AA0000E4800F0B7FB01210C4800F03FFA01217D
:101AB0000A4800F047FA8021084800F0BDFB2021C9
:101AC000064800F0C2FBFFF743FE0021034800F088
:101AD0003CFA09B000BD00000008014000040040CD
:101AE00008B501214FF4A47000F092F80420ADF87D
:101AF000000048208DF8030069460F48FFF7E2FC1C
:101B000010208DF8030003208DF802002020ADF88E
:101B1000000069460948FFF7D5FC20210748FFF778
:101B20005EFD8020ADF8000048208DF80300694676
:101B30000148FFF7C7FC08BD001801400020014024
:101B400000BFFEE77047000070B5002100230F22A0
:101B5000C47804B3154C246804F4E064C4F5E0646C
:101B6000210AC1F10403CA40447804FA03F18478DD
:101B70001440214309010E4C0678A155047804F065
:101B80001F050124AC4005786D11AD0005F1E0257D
:101B9000C5F8004109E0047804F01F050124AC40B9
:101BA000044D0678761145F8264070BD0CED00E036
:101BB00000E400E080E100E002490143024A1160D4
:101BC000704700000000FA050CED00E070470000CF
:101BD00029B1064AD2690243044BDA6104E0034AA0
:101BE000D2698243014BDA61704700000010024065
:101BF00029B1064A12690243044B1A6104E0034A00
:101C000012698243014B1A617047000000100240C4
:101C100029B1064A92690243044B9A6104E0034ADF
:101C200092698243014B9A617047000000100240A4
:101C300029B1064AD2680243044BDA6004E0034A41
:101C4000D2688243014BDA60704700000010024006
:101C500030B500210022002400232D4D6D6805F0D1
:101C60000C0121B1042905D0082923D105E0294D13
:101C7000056022E0274D05601FE0254D6D6805F4E5
:101C80007012234D6D6805F48034022505EB9242F5
:101C90001CB9214D554305600BE01D4D6D6805F4E1
:101CA00000351DB11C4D5543056002E0194D5543EB
:101CB000056002E0174D056000BF00BF144D6D6860
:101CC00005F0F0010909154D6B5C0568DD404560C4
:101CD0000F4D6D6805F4E061090A104D6B5C4568B5
:101CE000DD4085600A4D6D6805F46051C90A0B4DF1
:101CF0006B5C4568DD40C560054D6D6805F440418D
:101D0000890B074D6B5CC568B5FBF3F5056130BD0C
:101D10000010024000127A0000093D006C00002013
:101D20007C000020704710B500F002F810BD0000E4
:101D30000CB50020019000903348006840F48030DA
:101D40003149086000BF3048006800F4003000905E
:101D50000198401C0190009818B90198B0F5A06F47
:101D6000F1D12948006800F4003010B10120009042
:101D700001E0002000900098012843D1234800682A
:101D800040F01000214908600846006820F0030078
:101D900008600846006840F0020008601A48406881
:101DA000194948600846406848600846406840F461
:101DB000806048600846406820F47C10486008460F
:101DC000406840F4E81048600846006840F08070C1
:101DD000086000BF0C48006800F000700028F9D0CF
:101DE0000948406820F003000749486008464068F9
:101DF00040F00200486000BF0348406800F00C005B
:101E00000828F9D10CBD000000100240002002405B
:101E1000042808D14FF0E021096941F004014FF096
:101E2000E022116107E04FF0E021096921F004018F
:101E30004FF0E022116170477047000010B5134861
:101E4000006840F0010011490860084640681049E8
:101E500008400E494860084600680E4908400B4992
:101E600008600846006820F4802008600846406842
:101E700020F4FE0048604FF41F008860FFF753FF16
:101E80004FF000600449086010BD000000100240DF
:101E90000000FFF8FFFFF6FE08ED00E010B54FF67A
:101EA000FE70074908800021064800F04EF8002126
:101EB0000348103800F049F800200349088010BD9D
:101EC00010080040002C01405800002010B54FF6CB
:101ED000FE70074908800021064800F036F800210E
:101EE0000348103800F031F800200349088010BD85
:101EF000100C0040000400405C00002010B54FF6BC
:101F0000FE700849088000214FF0804000F01DF865
:101F100000210448103800F018F800200249088019
:101F200010BD0000103401405A00002021B1028889
:101F300042F08002028004E002884FF67F731A406C
:101F400002807047CA430282704721B1028842F082
:101F50000102028004E002884FF6FE731A400280FC
:101F6000704731B1B0F8442042F40042A0F8442058
:101F700005E0B0F84420C2F30E02A0F844207047F8
:101F800010B504466848844208D10121C014FFF707
:101F90004FFE0021E014FFF74BFEC4E0B4F1804F88
:101FA00008D101210846FFF723FE00210120FFF799
:101FB0001FFEB8E05D48844208D101210220FFF7EE
:101FC00017FE00210220FFF713FEACE058488442C0
:101FD00008D101210420FFF70BFE00210420FFF7A8
:101FE00007FEA0E05348844208D101210820FFF7F2
:101FF000FFFD00210820FFF7FBFD94E04E488442DE
:1020000008D101211020FFF7F3FD00211020FFF778
:10201000EFFD88E04948844208D101212020FFF7E4
:10202000E7FD00212020FFF7E3FD7CE044488442E7
:1020300008D101214014FFF7FBFD00216014FFF7D8
:10204000F7FD70E03F48844209D10121C804FFF741
:10205000EFFD00214FF40020FFF7EAFD63E03A486E
:10206000844209D101210805FFF7E2FD00214FF468
:102070008010FFF7DDFD56E03448844209D101218C
:102080004805FFF7D5FD00214FF40010FFF7D0FD04
:1020900049E02F48844208D101214020FFF7A8FDE4
:1020A00000214020FFF7A4FD3DE02A48844208D1EA
:1020B00001218020FFF79CFD00218020FFF798FD83
:1020C00031E02548844208D101218015FFF790FDB9
:1020D0000021A015FFF78CFD25E02048844209D19E
:1020E00001210804FFF7A4FD00214FF48030FFF721
:1020F0009FFD18E01A48844209D101214804FFF7E6
:1021000097FD00214FF40030FFF792FD0BE01548DA
:10211000844208D101218804FFF78AFD00214FF491
:102120008020FFF785FD10BD002C01400004004019
:1021300000080040000C0040001000400014004067
:1021400000340140004C0140005001400054014067
:1021500000180040001C00400020004000400140EA
:1021600000440140004801401AB183890B43838138
:1021700002E083898B4383817047000070B500249F
:1021800000220023058C4FF6FE7635400584028C34
:102190008388048B4FF68F752C40B51E2C400D881C
:1021A0002C43751E2A400D892A434D882A43144D1D
:1021B000A8420BD0134DA84208D0134DA84205D019
:1021C000124DA84202D0124DA84213D14FF6F77516
:1021D0002A404D892A434FF6FB752A408D882A43B1
:1021E0004FF6FF652B404FF6FF552B408D892B4353
:1021F000CD892B4383800483CD888586028470BD7E
:10220000002C0140003401400040014000440140E6
:10221000004801400A460021018B4FF6F773194030
:102220001143018370470A46002101894FF68F73DD
:10223000194011430181704702894FF67F731A409C
:10224000028102890A430281704782884FF68F73A8
:102250001A40828082880A438280704702894FF642
:10226000F8731A40028102890A4302817047000014
:10227000002202881D4B98420ED01D4B98420BD075
:10228000B0F1804F08D01B4B984205D01A4B9842B2
:1022900002D01A4B984204D14FF68F731A404B88E4
:1022A0001A43174B984207D0164B984204D04FF66A
:1022B000FF431A40CB881A4302808B8883850B88A2
:1022C00003850A4B98420BD0094B984208D00E4B1D
:1022D000984205D00D4B984202D00D4B984201D147
:1022E0000B7A03860123838270470000002C014093
:1022F000003401400004004000080040000C004091
:102300000010004000140040004001400044014023
:102310000048014010B540F22551124800F053F931
:10232000F8B1104800F00AFAC4B20F480460232C38
:1023300006D10E48008840F400400C49088010E0A7
:102340000A480088C0F30D0009490C54074800886A
:10235000401C0649088008460088C72801DD002087
:10236000088010BD00380140880000208400002053
:10237000CC00002010B540F22551664800F023F94A
:10238000002823D0634800F0D9F9C4B2212C04D12D
:1023900061480068401C604908605F480068B0B14F
:1023A0000D2C08D15C480068012804D15A48006807
:1023B000401C594908600A2C08D157480068022877
:1023C000FAD155480068401C53490860A0E05348C2
:1023D000008800F4004058BB5048008800F480405A
:1023E00060B10A2C03D000204C49088005E04B481E
:1023F000008840F400404949088010BD0D2C06D1EA
:102400004648008840F480404449088010E0434832
:102410000088C0F30D0042490C5440480088401C1D
:102420003E49088008460088C72801DD0020088052
:102430003A48008800F40040B0F5004F35D13948E3
:10244000008800F4004080BB37480068401C3649D3
:1024500008603448008800F4804060B10A2C03D042
:1024600000203049088005E02E48008840F40040F4
:102470002C490880C1E70D2C06D12A48008840F479
:1024800080402849088010E026480088C0F30D00ED
:1024900026490C5423480088401C224908800846DD
:1024A0000088C72801DD002008801E48008800F44D
:1024B0000040B0F5004F2BD11D48008800F480404B
:1024C00060B10A2C03D000201949088020E0184888
:1024D000008840F400401649088019E00D2C06D110
:1024E0001348008840F480401149088010E01048EB
:1024F0000088C0F30D000F490C540D480088401CA3
:102500000B49088008460088C72801DD00200880A4
:1025100000BF72E7004400409C0000208C000020B7
:10252000940100208E000020940000205C02002016
:10253000900000202403002010B540F225511248DD
:1025400000F041F8F0B1104800F0F8F8C4B20F48BC
:102550000460232C02D101200D490880242C02D1D3
:1025600002200B490880252C02D10320084908804D
:10257000262C02D1042006490880272C02D10520F0
:102580000349088010BD000000480040A80000205A
:10259000A400002021B1828942F40052828104E02B
:1025A00082894DF6FF731A408281704702460020EF
:1025B000B1F5007F00D100BF13880B400BB10120A3
:1025C00000E00020704770B502460024002300257B
:1025D000002040F66A16B14200D100BFC1F3421597
:1025E00001F01F03012606FA03F3012D02D196899B
:1025F000334006E0022D02D1168A334001E0968A6C
:1026000033400C12012606FA04F41688344013B144
:102610000CB1012000E0002070BDF0B5034600249D
:1026200000260025002040F66A17B94200D100BFFD
:102630001846C1F3421401F01F06012707FA06F5F8
:10264000012C01D10C3004E0022C01D1103000E04B
:1026500014301AB107682F43076002E00768AF43E0
:102660000760F0BD2DE9F04786B005460E46002410
:10267000A24600BFA1460027B08900B100BF2F4687
:102680002C8A4CF6FF700440F08804432C82AC89FD
:102690004EF6F3100440B08831890843718908432D
:1026A0000443AC81AC8A4FF6FF400440B089044338
:1026B000AC8201A8FFF7CCFA1F48874202D1DDF8AF
:1026C00010A001E0DDF80CA0A88900F4004040B1A2
:1026D0000AEBCA0000EB0A1031684900B0FBF1F8C0
:1026E00007E00AEBCA0000EB0A1031688900B0FB72
:1026F000F1F86420B8FBF0F004012009642101FB2B
:102700001089A88900F4004040B1322000EBC900D4
:10271000B0FBF1F000F00700044308E0322000EBCA
:1027200009106421B0FBF1F000F00F0004432C818C
:1027300006B0BDE8F08700000038014001468888F7
:10274000C0F308007047C1F308028280704700BFE1
:10275000FEE7490050EAC12018BF04204A0D18BF07
:1027600040F0010040F2FF72B2EB515F08BF40F051
:102770000200012808BF052070474100080218BF69
:1027800004200A0E18BF40F001004FF07F4232EAE9
:10279000010108BF40F00200012808BF0520704772
:1027A000012103F062BB6FF05E01080703F05DBB1F
:1027B000014600BF704700002DE9F0410546044680
:1027C0004FF00E4000EB4400B0F1145F76D24FF0B2
:1027D000FE40B0EB440F24BF002637460CD214F065
:1027E000004F19BF454F464E464F474E214647487A
:1027F00003F07CF8054604464FF0FC40B0EB440F74
:102800002CD24349DFF80C8114F0004F0AD04FF06E
:102810003F44384603F080FA07464146304603F00D
:102820007BFA09E04FF07C54384602F0F7FF074688
:102830004146304602F0F2FF06462146284603F0A4
:1028400017F94FF07E5102F0E9FF804621462846F5
:1028500003F062FA414603F049F805462946084666
:1028600003F006F980462C4903F002F92B4902F0E7
:10287000D5FF414603F0FCF8294902F0CFFF41465D
:1028800003F0F6F8274902F0C9FF414603F0F0F8DB
:10289000254902F0C3FF04464146284603F0E8F804
:1028A000214603F0E5F8314602F0B8FF294602F070
:1028B000B5FF3946BDE8F04102F0B0BF4FF0E4404B
:1028C000B0EB440F09D92846FFF757FF042808BF8B
:1028D000FFF769FF2846BDE8F0814FF07F40B0EB7D
:1028E000440F04D22046BDE8F041FFF759BF14F071
:1028F000004F14BF0D480E48BDE8F0810000C9BF6D
:1029000022AAFDB90000C93F22AAFD39000080BFFC
:102910000060ED3EC30ACE372DAD65BD8FB8D53D05
:102920000FB511BE61C84C3EA8AAAABEDB0FC9BF35
:10293000DB0FC93F70B5002500244FF480511648C5
:10294000FEF74DFE4FF480611348FEF748FE0F205E
:10295000FEF7E0FC4FF480510F48FEF73EFE00BF4B
:1029600014E04FF480610C48FEF737FE0F20FEF7AD
:10297000D1FC4FF480610848FEF731FE0F20FEF7CE
:10298000C9FC06480068044364006D1C0C2DE8DB9C
:102990006408204670BD0000001001402C01224256
:1029A00070B50025002408211C48FEF718FE0121FF
:1029B0001B48FEF714FE0F20FEF7ACFC0821174859
:1029C000FEF70BFE0F20FEF7A5FC00BF12E0012171
:1029D0001348FEF702FE0F20FEF79CFC0121104871
:1029E000FEF7FDFD0F20FEF795FC0E48006804433E
:1029F00064006D1C0C2DEADB640808210748FEF713
:102A0000EEFD0F20FEF786FC08210448FEF7E5FDE9
:102A100001210348FEF7E3FD204670BD001C014084
:102A2000001801400401234270B500250024402114
:102A30001C48FEF7D4FD08211A48FEF7D0FD0F20F0
:102A4000FEF768FC40211748FEF7C7FD0F20FEF790
:102A500061FC00BF12E008211248FEF7BEFD0F2006
:102A6000FEF758FC08210F48FEF7B9FD0F20FEF7CE
:102A700051FC0D480068044364006D1C0C2DEADB1A
:102A8000640840210748FEF7AAFD0F20FEF742FC2C
:102A900040210448FEF7A1FD08210248FEF79FFDF2
:102AA000204670BD001801401001234208B50121E5
:102AB000D020FFF7ADF810208DF803008001ADF8AD
:102AC000000003208DF8020069464348FEF7FAFC37
:102AD0004FF480614048FEF782FD10208DF803001E
:102AE0000002ADF8000003208DF8020069463A4864
:102AF000FEF7E8FC4FF480513748FEF770FD0420E4
:102B00008DF803004002ADF8000003208DF80200AC
:102B100069463148FEF7D6FC10208DF803000120ED
:102B2000ADF8000003208DF8020069462B48FEF73F
:102B3000C9FC01212948FEF752FD10208DF8030041
:102B40000820ADF8000003208DF8020069462448F3
:102B5000FEF7B8FC08212248FEF741FD04208DF85D
:102B600003000220ADF8000003208DF80200694642
:102B70001A48FEF7A7FC10208DF803000820ADF8D6
:102B8000000003208DF8020069461448FEF79AFC05
:102B900008211248FEF723FD10208DF80300402085
:102BA000ADF8000003208DF8020069460B48FEF7DF
:102BB00089FC40210948FEF712FD04208DF803002E
:102BC0001020ADF8000003208DF80200694603488C
:102BD000FEF778FC08BD000000100140001801401D
:102BE000001C014010B56FF00400FFF711F90A480E
:102BF00000680A49B0FBF1F00949087008460078FE
:102C000000EB4001C1EBC0104FF6FF7101EAC000BC
:102C10000449088010BD00001000002000127A0056
:102C2000C8000020CA0000200146114A12884A4309
:102C30004FF0E0235A6100229A611A46126942F06D
:102C400001021A6100BF4FF0E022106900F001029A
:102C50001AB100F48032002AF5D04FF0E022126958
:102C600022F001024FF0E0231A6100229A617047BE
:102C7000CA00002000BF054A128802F04002002A64
:102C8000F9D0C2B2014B1B1D1A80704700380140B9
:102C90000EB54FF4A060FEF78FFFFFF7A3FF4FF4D0
:102CA000E13001F035FA4FF4165001F085FA4FF497
:102CB000165001F0D3FAFFF7F9FE00F021FBFEF702
:102CC000B9FBFEF70DFFFEF79FFDFEF717FEFEF7BF
:102CD00085FE0020B54A106050600021B44A1160A2
:102CE0005160B449B44A03C2FFF724FEB3490860F7
:102CF000FFF756FEB2490860FFF796FEB14908603B
:102D0000012002904FF03330AF4900221346CDE945
:102D100000011046114600F035FE45E1AB48008841
:102D200000F40040E0B1AA48008800F40040B8B1C7
:102D3000A848008800F4004090B101F00BF8A648C4
:102D40000CC8A6A0FDF774FA01200290A24803C89F
:102D5000CDE90001A548A6490CC803C900F012FE40
:102D6000A448008800F4004000283ED0A2494A78D8
:102D70000978303901EB810102EB4101A1F130000A
:102D800002F08FFA9A4A03C29B49CA78897830398F
:102D900001EB810102EB4101A1F1300002F081FA67
:102DA000924A03C2954996488B4AC2E90010002016
:102DB0009049088001201146029003C9CDE9000125
:102DC0008A488B490CC803C900F0DCFD88480CC850
:102DD0008CA0FDF72DFA85480CC88EA0FDF728FAC7
:102DE0007D480CC87DA0FDF723FA41F28830FFF73B
:102DF0001BFF20218B48FEF7F0FB8B48006808B9C9
:102E0000012000E0002088490860FFF793FD044698
:102E1000214686A0FDF70CFAFFF7C2FD04462146C5
:102E200086A0FDF705FAFFF7FFFD0446214687A0BF
:102E3000FDF7FEF9FFF77EFD88490860FFF7B0FD5A
:102E400087490860FFF7F0FD8649086086480068FA
:102E5000032810D123218548FFF775FC00BF80218E
:102E60008248FFF7A3FB0128F9D100207E490860C2
:102E70007FA0FDF7DDF980480088012818D1029075
:102E80005E487E4900221346CDE9000110461146F6
:102E900000F078FD24217548FFF755FC00BF802124
:102EA0007248FFF783FB0128F9D10020724908809E
:102EB0007148008802281AD101204FF03331029066
:102EC000414800221346CDE900101046114600F09B
:102ED00059FD25216548FFF736FC00BF8021634876
:102EE000FFF764FB0128F9D100206349088062489C
:102EF000008803281AD1012002904FF03330324964
:102F000000225F4BCDE9000110465E4900F03AFD1A
:102F100026215648FFF717FC00BF80215348FFF7D2
:102F200045FB0128F9D10020534908805248008808
:102F300004281AD101204FF0333102902248002298
:102F4000514BCDE900101046504900F01BFD2721E0
:102F50004648FFF7F8FB00BF80214448FFF726FBF7
:102F60000128F9D1002044490880434800880528F9
:102F70001AD1012002904FF033301349002213463A
:102F8000CDE900011046114600F0FCFC282137482D
:102F9000FFF7D9FB00BF80213448FFF707FB01286A
:102FA000F9D1002034490880B8E600004000002034
:102FB0004800002000C072C05000002060000020C7
:102FC000640000206800002033736CC08C00002077
:102FD0008E00002090000020C000002061696D7A02
:102FE0003A254C66200D202000000000B80000208B
:102FF000B000002084000020CC0000209A9999990C
:10300000997974C061696D783A254C66200D20204D
:103010000000000061696D793A254C66200D202082
:103020000000000000200140A4012442636F646599
:1030300072313A2564200D2020000000636F646522
:1030400072323A2564200D2020000000636F646511
:1030500072333A2564200D0A20200000040000206D
:10306000080000200C0000209C00002000480040C8
:103070004F4B200D0A000000A4000020997975C074
:10308000000039C0008041C000003940008041404C
:103090002DE9F05F814615461E46B9F1010F03D1B7
:1030A00000202649086002E0012024490860244AE3
:1030B000244B2846314602F05BF90746224A234B4F
:1030C00001F0FEFE824602F0BFF884B2214620A045
:1030D000FDF7AEF8204602F0FBF807460022214B30
:1030E00002F044FA02D24FF0010A01E04FF0000A68
:1030F000204602F0EDF8074600221A4B02F038F89D
:1031000001D1012000E000204AEA000ABAF1000FD4
:1031100012D0601E14490880002013490839088025
:1031200001211248FEF711FF01210F482C38FEF74C
:103130000CFF01200E490880BDE8F09F80812342EA
:103140009CC420B0721E7440CDCCCCCCCCCCFC3F07
:103150000D0A2050554C5345313A2564200D0A2064
:10316000200000000000F83F2C080040002C014027
:10317000580000202DE9F05F814615461E46B9F142
:10318000010F03D101202449086002E000202249F8
:103190000860224A224B2846314602F0E9F80746E9
:1031A000204A214B01F08CFE824602F04DF884B299
:1031B000204602F08DF8074600221C4B02F0D6F99B
:1031C00002D24FF0010A01E04FF0000A204602F05F
:1031D0007FF807460022154B01F0CAFF01D10120FC
:1031E00000E000204AEA000ABAF1000F12D0601E87
:1031F0000F49088000200E490839088001218807FE
:10320000FEF7A3FE01210A482C38FEF79EFE01209E
:1032100008490880BDE8F09F8481234285EB51B8BE
:103220001E137440CDCCCCCCCCCCFC3F0000F83F7E
:103230002C3401405A0000202DE9F05F81461546EC
:103240001E46B9F1010F03D101202449086002E0B4
:10325000002022490860224A224B2846314602F0CB
:1032600087F80746204A214B01F02AFE824601F0EA
:10327000EBFF84B2204602F02BF8074600221C4BDD
:1032800002F074F902D24FF0010A01E04FF0000A97
:10329000204602F01DF807460022154B01F068FF9A
:1032A00001D1012000E000204AEA000ABAF1000F33
:1032B00012D0601E0F49088000200E49083908808E
:1032C00001210D48FEF741FE01210A482C38FEF786
:1032D0003CFE012009490880BDE8F09F8881234217
:1032E000CFF753E3A50B7440CDCCCCCCCCCCFC3F7A
:1032F0000000F83F2C0C0040000400405C0000205F
:1033000008B501214FF4C470FEF782FC0120ADF82E
:10331000000010208DF8030003208DF8020069469C
:103320001F48FEF7CFF801211D48FEF758F902208B
:10333000ADF8000069461A48FEF7C4F802211848A3
:10334000FEF74DF90420ADF8000069461448FEF779
:10335000B9F804211248FEF742F90420ADF8000044
:1033600069461048FEF7AEF804210E48FEF735F91D
:103370000820ADF8000069460A48FEF7A3F80821C6
:103380000848FEF72AF91020ADF800006946054804
:10339000FEF798F810210348FEF71FF908BD00005A
:1033A000001C0140002001402DE9FF5FA4B0012076
:1033B000139012901190109000200F900E900D908D
:1033C00001200C900B900A9000BFA2E0FFF7B2FA28
:1033D000099001F066FFCDE92201FFF7E1FA0990BB
:1033E00001F05FFFCDE92001FFF71EFB099001F01E
:1033F00058FFCDE91E010022FE4BDDE9220102F05B
:10340000F7F804460D46002213462046294601F0EF
:1034100073FF07D20022F84B2046294601F09CFC9E
:1034200004460D460022F54B2046294602F09EF840
:1034300007D20022F04B2046294602F0D9F8044674
:103440000D460022EE4BDDE9200102F0D1F80646E0
:103450000F46002213463046394601F04DFF07D291
:103460000022E54B3046394601F076FC06460F4611
:103470000022E24B3046394602F078F807D20022AB
:10348000DD4B3046394602F0B3F806460F460022BF
:10349000DC4BDDE91E0102F0ABF8804689460022D4
:1034A00013464046494601F027FF07D20022D24B7F
:1034B0004046494601F050FC804689460022CF4BE9
:1034C0004046494602F052F807D20022CA4B404615
:1034D000494602F08DF880468946CB4ACB4B2046C0
:1034E000294601F0EDFCCDE91C01C74AC74B304627
:1034F000394601F0E5FCCDE91A01C34AC34B404609
:10350000494601F0DDFCCDE918011098401CC0B21D
:10351000109010980228FFF659AFBDA0DDE91C23DA
:10352000FCF786FEDDE91C23DDE9240102F060F8EA
:1035300082468B46DDE91A23DDE9260102F058F8C0
:10354000CDE91601DDE91823DDE9320102F050F87A
:10355000CDE91401002213465046594601F0CCFE35
:1035600004D2002013908BF0004B01E00120139057
:1035700000221346DDE9160101F0BEFE08D200204C
:103580001290DDE9160181F00041CDE9160101E05C
:103590000120129000221346DDE9140101F0ACFE77
:1035A00008D200201190DDE9140181F00041CDE93D
:1035B000140101E00120119052465B469AA0139934
:1035C000FCF736FE9FA0DDE916231299FCF730FECA
:1035D000A3A0DDE914231199FCF72AFE0F9820B966
:1035E00052465B461398FFF753FD0E9820B9DDE96C
:1035F00016231298FFF7BEFD0D9820B9DDE91423BC
:103600001198FFF719FE4BE0FFF794F980B20C9088
:10361000FFF7C6F980B20B90FFF706FA80B20A9066
:1036200040F68E310C98884206DA40F2C6510C986A
:10363000884201DD012100E0002140F657020B988D
:10364000904205DA0B98B0F5247F01DB012000E001
:103650000020084340F6B9220A99914201DD012178
:1036600000E00021084310B90A98B42818DA0021B4
:103670008148FEF76AFC00214FF08040FEF765FCB0
:1036800000217E48FEF761FC00217D48FEF75DFCCD
:1036900000217C48FEF759FC00217B48FEF755FCD1
:1036A0007A4800880128AFD0794800880128ABD03B
:1036B000784800880128A7D0FFF73CF9099001F06D
:1036C000F0FDCDE92201FFF76BF9099001F0E9FD6A
:1036D000CDE92001FFF7A8F9099001F0E2FDCDE95D
:1036E0001E010022434BDDE9220101F081FF044667
:1036F0000D46002213462046294601F0FDFD07D263
:1037000000223D4B2046294601F026FB04460D468B
:1037100000223A4B2046294601F028FF07D200221A
:10372000354B2046294601F063FF04460D46002232
:10373000334BDDE9200101F05BFF06460F46002216
:1037400013463046394601F0D7FD07D200222A4BF6
:103750003046394601F000FB06460F460022274B53
:103760003046394601F002FF07D20022224B304694
:10377000394601F03DFF06460F460022214BDDE9A8
:103780001E0101F035FF804689460022134640465F
:10379000494601F0B1FD07D20022174B4046494689
:1037A00001F0DAFA804689460022144B4046494629
:1037B00001F0DCFE07D200220F4B4046494601F0E3
:1037C00017FF80468946104A104B2046294601F0D3
:1037D00077FBCDE91C010C4A0C4B3046394601F011
:1037E0006FFBCDE91A01084A084B4046494601F0F3
:1037F00067FB51E000D088400000B0400000A040CE
:10380000002CAD4000D49240464F80176CC126403A
:1038100043555252454E54414E474C453A254C660D
:10382000200D0A20200000000D0A646972313A253B
:103830006420202020616E676C65313A254C66203B
:1038400020202000646972323A2564202020206103
:103850006E676C65323A254C6620202020000000FF
:10386000646972333A256420202020616E676C659C
:10387000333A254C660D0A00002C0140000400403C
:103880000008004000340140000C004058000020B7
:103890005A0000205C000020CDE91801DDE9182362
:1038A000DDE9320101F0A4FECDE90801DDE91A23CA
:1038B000DDE9260101F09CFECDE90601DDE91C23CE
:1038C000DDE9240101F094FECDE90401DDE9080100
:1038D000CDE90201DDE90601CDE9000122A0DDE923
:1038E0000423FCF7A5FCDDE91C23DDE9240101F03C
:1038F0007FFE21F000410022214BCDE9080101F0BB
:10390000FBFC01D801200F90DDE91A23DDE9260137
:1039100001F06EFE21F000410022194BCDE90801B3
:1039200001F0EAFC01D801200E90DDE91823DDE961
:10393000320101F05DFE21F000410022104BCDE983
:10394000080101F0D9FC01D801200D900F98002842
:103950003FF43BAD0E980028FAD00D980028F7D020
:1039600028B0BDE8F09F0000254C662020202020D4
:10397000254C66202020254C662020202020200079
:103980000000E03F2DE9F04F9BB08046894692460B
:103990009B46D1480CC8DDE9240101F029FECDE9A0
:1039A0000601CD480CC8DDE9240101F021FECDE976
:1039B0000401DDE9062301F0DBFCCDE90A01C7487B
:1039C0000CC85046594601F013FECDE90201C34828
:1039D0000CC85046594601F00BFECDE90001DDE967
:1039E000022301F0C5FCCDE90601BD480CC84046E4
:1039F000494601F0FDFDCDE90201B9480CC8404639
:103A0000494601F0F5FDCDE90001DDE9022301F0B1
:103A1000AFFCCDE90401DDE9062301F09DF9CDE914
:103A20000801DDE90A2301F097F9CDE90C0101F065
:103A300061F90E9000F056FB0F9001F0C3FECDE946
:103A40001801269800287DD10022A64BDDE9180137
:103A500001F08CFD04D80021A348CDE9161016E032
:103A60000022A24BDDE9180101F080FD0BD80022F5
:103A70009C4BDDE9180101F03FFC04D200219C4879
:103A8000CDE9161003E000219A48CDE91610DDE9D2
:103A9000180101F0A9FB0D9001F003FCCDE90E0126
:103AA000DDE9162301F00CFA06460F4600242546F0
:103AB000BAE032463B462046294601F001FACDE9FC
:103AC0000C0187480CC84046494601F091FDCDE9FC
:103AD0000A01DDE90C2301F04BFCCDE90E01804821
:103AE0000CC80E9801F038F9CDE9140132463B4676
:103AF0002046294601F0E4F9CDE90C0177480CC8CD
:103B00005046594601F074FDCDE90A01DDE90C2368
:103B100001F02EFCCDE90E0170480CC80E9801F0A2
:103B20001BF9CDE9120132463B462046294601F0F9
:103B3000C7F9CDE90C0168480CC8DDE9240101F0A2
:103B400057FD00E078E0CDE90A01DDE90C2301F042
:103B50000FFCCDE90E0160480CC80E9801F0FCF88E
:103B6000CDE910015C4804A9F0C103C8CDE9020108
:103B70005A4903C9CDE9000159480CC85EA0FCF7B9
:103B800057FBDDE91001CDE90201DDE91201CDE9C4
:103B9000000164A0DDE91423FCF74AFBDDE9100114
:103BA000CDE90001DDE91223DDE9140100F0AAFBF3
:103BB00000224C4B624903C901F09EFB2CD200222B
:103BC000604B5F4903C901F0D1FC25D20022454B6F
:103BD0005D4903C901F090FB1ED20022594B5A499E
:103BE00003C901F0C3FC17D200223E4B574903C959
:103BF00001F082FB10D20022524B544903C901F05C
:103C0000B5FC09D2514903C9CDE900014E484C49E0
:103C10000CC803C9FFF7C8FB00224D4B20462946BC
:103C200001F09AF804460D4632463B4620462946A6
:103C300001F062FB7FF63DAF269801283DD1DDE91A
:103C4000240152465B46CDE900014046494600F05A
:103C500059FB0022234B3A4903C901F04DFB2CD2FA
:103C60000022384B364903C901F080FC25D20022DE
:103C70001C4B354903C901F03FFB1ED20022314BDA
:103C8000314903C901F072FC17D20022154B2F49AC
:103C900003C901F031FB10D200222A4B2B4903C982
:103CA00001F064FC09D2294803C8CDE90001264887
:103CB00023490CC803C9FFF777FB0948C0E900890D
:103CC0000648C0E900AB044ADDE92410C2E900104F
:103CD0001BB0BDE8F08F000050000020480000201D
:103CE00040000020000069400000124000005940E0
:103CF000000008400000F83F6E6F77783A254C6668
:103D00002C6E6F77793A254C662C6E6F777A3A2550
:103D10004C662C693A254C662C6E3A254C660D0A89
:103D200000000000785F323A254C662C795F323A09
:103D3000254C662C7A5F323A254C660D0A0000004D
:103D400028000020000069C030000020380000205A
:103D50000000F03F70B5C4480678C4A0FCF768FACC
:103D6000C84800782D2836D1022E04D0032E0BD05F
:103D7000042E2FD118E0C34949783039484201F068
:103D800090FAC14A03C225E0BE4989783039BD4A5C
:103D90005278303A02EB820201EB4201484201F0D4
:103DA00080FAB94A03C215E0B6494978303964222D
:103DB0005143B44A9278303A02EB820201EB42025C
:103DC000B049C97830391144484201F06AFAAE4A24
:103DD00003C200BF34E0012E04D0022E0BD0032E0C
:103DE0002DD117E0A7490978A1F1300001F059FA67
:103DF000A54A03C223E0A34949783039A14A127881
:103E0000303A02EB820201EB420001F04AFA9E4A8C
:103E100003C214E09B490978303964225143994A1E
:103E20005278303A02EB820201EB420295498978DE
:103E30003039501801F035FA934A03C200BF00BF71
:103E400091480CC891A0FCF7F3F994A0FCF7F0F9A5
:103E50000020854908809348047884A0FCF7E8F99D
:103E6000914800782D2836D1022C04D0032C0BD099
:103E7000042C2FD118E08C4949783039484201F0A0
:103E800010FA8A4A03C225E0874989783039864A80
:103E90005278303A02EB820201EB4201484201F0D3
:103EA00000FA824A03C215E07F494978303964221A
:103EB00051437D4A9278303A02EB820201EB420292
:103EC0007949C97830391144484201F0EAF9774A12
:103ED00003C200BF34E0012C04D0022C0BD0032C11
:103EE0002DD117E070490978A1F1300001F0D9F91E
:103EF0006E4A03C223E06C49497830396A4A127825
:103F0000303A02EB820201EB420001F0CAF9674A43
:103F100003C214E064490978303964225143624A8B
:103F20005278303A02EB820201EB42025E49897814
:103F30003039501801F0B5F95C4A03C200BF00BF28
:103F40005A480CC85AA0FCF773F954A0FCF770F952
:103F50000020544908805A48057844A0FCF768F9C5
:103F6000584800782D2834D1022D04D0032D0BD0D1
:103F7000042D2DD117E053494978A1F1300001F00B
:103F800090F9514A03C223E04E49897830394D4AAD
:103F90005278303A02EB820201EB420001F081F9E3
:103FA000494A03C214E047494978303964225143F1
:103FB000444A9278303A02EB820201EB42024149D4
:103FC000C9783039501801F06CF93F4A03C200BF7C
:103FD00036E0012D04D0022D0BD0032D2FD118E097
:103FE000384909783039484201F05BF9364A03C252
:103FF00025E0344949783039324A1278303A02EBB8
:10400000820201EB4201484201F04BF92E4A03C201
:1040100015E02C490978303964225143294A5278F5
:10402000303A02EB820201EB4202264989783039AC
:104030001144484201F035F9234A03C200BF00BFD2
:1040400021480CC821A0FCF7F3F814A0FCF7F0F805
:1040500000201B490880214A214B1B4903C901F05C
:10406000C7FA194A03C270BD8C0000200D0AC4FAB9
:10407000B7A2CBCDB5C4CFFBCFA2CEAA3A0D0A0DC5
:104080000A00000094010020B000002061696D78F2
:104090003A254C66200D2020000000000D0A0D0A74
:1040A000000000008E0000205C020020B80000200C
:1040B00061696D793A254C66200D202000000000D2
:1040C0009000002024030020C000002061696D7A68
:1040D0003A254C66200D2020000000009A999999FD
:1040E00099993B4070B5054601F08EFD044620F0DD
:1040F0000040C0F1FF40C00F08D025F00040C0F1E3
:10410000FF40C00F04BF0120FCF73FF9204670BDFF
:1041100010B586B0044601218803FDF779FD012121
:104120000420FDF775FD4FF40070ADF81400032076
:104130008DF8160018208DF8170005A91C48FDF70A
:10414000C1F94FF48060ADF8140004208DF8170019
:1041500005A91748FDF7B6F925208DF800000320C2
:104160008DF801008DF8020001208DF803006846EB
:10417000FDF7EAFC01940020ADF80800ADF80A0054
:10418000ADF80C00ADF810000C20ADF80E0001A940
:104190000848FEF767FA012240F225510548FEF76C
:1041A0003CFA01210348FEF7F5F906B010BD000006
:1041B000000801400038014010B586B004460121D6
:1041C0004804FDF705FD01210420FDF721FD042031
:1041D000ADF8140003208DF8160018208DF8170094
:1041E00005A91C48FDF76EF90820ADF8140004205D
:1041F0008DF8170005A91748FDF764F926208DF8FA
:10420000000003208DF801008DF8020001208DF8D8
:1042100003006846FDF798FC01940020ADF8080003
:10422000ADF80A00ADF80C00ADF810000C20ADF8A8
:104230000E0001A90848FEF715FA012240F22551A7
:104240000548FEF7EAF901210348FEF7A3F906B095
:1042500010BD0000000801400044004010B586B0C9
:10426000044601218804FDF7B3FC01210820FDF775
:10427000CFFC4FF48060ADF8140003208DF81600D9
:1042800018208DF8170005A91C48FDF71BF94FF4FD
:104290000060ADF8140004208DF8170005A9174838
:1042A000FDF710F927208DF8000003208DF801009C
:1042B0008DF8020001208DF803006846FDF744FCEC
:1042C00001940020ADF80800ADF80A00ADF80C002C
:1042D000ADF810000C20ADF80E0001A90848FEF75B
:1042E000C1F9012240F225510548FEF796F9012156
:1042F0000348FEF74FF906B010BD0000000C014066
:10430000004800401FB5B0B0DDE930231046194623
:1043100001F02EF8CDE92E01DDE9322310461946D1
:1043200001F026F8CDE92C01DDE9362310461946C7
:1043300001F01EF8CDE92A0100204FF08041DDE9AF
:10434000362301F015F8FE4AFE4BCDE91001DDE9F8
:10435000300101F00DF8CDE90401DDE9322300F070
:10436000FBFC0022F84BCDE9060101F001F8CDE994
:104370000A01F648F649DDE92E2301F039F9CDE9C5
:104380000201DDE92C2301F033F9CDE90401DDE977
:104390002A2301F02DF90022EE4BCDE9060101F0B0
:1043A00027F9CDE90801DDE90A2300F0D5FC4FF03B
:1043B0006632E94BCDE90C0100F082FDCDE90E013A
:1043C000DDE9102300F0C8FCCDE92801DC4ADD4B13
:1043D000DDE9300100F0CCFF0022E04BCDE90C011B
:1043E00001F0FAF8CDE90E01DDE9322301F000F920
:1043F00000224FF04043CDE9100100F0B9FFCDE9B4
:10440000220100204FF08041DDE9362300F0B0FFAB
:10441000CB4ACC4BCDE91001DDE9300100F0A8FF1B
:10442000CDE90401DDE9322300F096FC0022C64B01
:10443000CDE9060100F09CFFCDE90A01C348C4495B
:10444000DDE92E2301F0D4F8CDE90201DDE92C23CA
:1044500001F0CEF8CDE90401DDE92A2301F0C8F826
:104460000022BC4BCDE9060101F0C2F8CDE90801FC
:10447000DDE90A2300F070FC4FF06632B64BCDE95F
:104480000C0100F01DFDCDE90E01DDE9102301F066
:10449000AFF8CDE91C0100204FF08041DDE9362363
:1044A00000F066FFA64AA74BCDE91001DDE9300117
:1044B00000F05EFFCDE90401DDE9322301F098F858
:1044C0000022A14BCDE9060100F052FFCDE90A011F
:1044D0009E489F49DDE92E2301F08AF8CDE90201CB
:1044E000DDE92C2301F084F8CDE90401DDE92A237C
:1044F00001F07EF80022974BCDE9060101F078F833
:10450000CDE90801DDE90A2301F072F84FF06632C7
:10451000914BCDE90C0100F0D3FCCDE90E01DDE9B2
:10452000102300F019FCCDE92601854A854BDDE911
:10453000300100F01DFF0022884BCDE90C0100F096
:104540000BFCCDE90E01DDE9322301F051F8002228
:104550004FF04043CDE9100100F00AFFCDE9200102
:1045600000204FF08041DDE9362300F001FF744A5E
:10457000744BCDE91001DDE9300100F0F9FECDE921
:104580000401DDE9322301F033F800226E4BCDE95E
:10459000060100F0EDFECDE90A016C486C49DDE949
:1045A0002E2301F025F8CDE90201DDE92C2301F0ED
:1045B0001FF8CDE90401DDE92A2301F019F80022F2
:1045C000644BCDE9060101F013F8CDE90801DDE9FE
:1045D0000A2301F00DF84FF066325F4BCDE90C0174
:1045E00000F06EFCCDE90E01DDE9102301F000F8CA
:1045F000CDE91A0100205449DDE9322300F0B8FE6C
:1046000000224FF08043CDE9080100F0B1FECDE972
:104610000C014E484E49DDE92E2300F0E9FFCDE9BB
:104620000401DDE92C2300F0E3FFCDE90601DDE91B
:104630002A2300F0DDFF0022464BCDE9080100F0FF
:10464000D7FFCDE90A01DDE90C2300F0D1FF4FF0DF
:104650006632434BCDE90E0100F032FCCDE910018A
:10466000DDE9362300F078FBCDE92401002036494E
:10467000DDE9322300F070FB00224FF04043CDE92A
:10468000100100F075FECDE91E0100202E49DDE984
:10469000322300F06DFE00224FF08043CDE9080187
:1046A00000F066FECDE90C0128482949DDE92E23FA
:1046B00000F09EFFCDE90401DDE92C2300F098FF16
:1046C000CDE90601DDE92A2300F092FF0022214B0B
:1046D000CDE9080100F08CFFCDE90A01DDE90C23EA
:1046E00000F086FF4FF066321D4BCDE90E0100F061
:1046F000E7FBCDE91001DDE9362300F079FFCDE9D4
:10470000180100221346DDE9280100F02FFF56D2E0
:1047100000204FF08041DDE9282300F029FECDE99B
:10472000100100200F49DDE9282300F021FECDE92A
:104730000001DDE91C2300F01BFECDE9040113E0BC
:10474000C710001C7BB6FB3F00A051400AD7A370E6
:104750004D2FD940406AB3406626624000A06140B8
:104760006626724000001040DDE9222310461946FB
:1047700000F0FEFDCDE90201DDE9042300F038FF81
:10478000CDE9060100F0B6FA0890FFF7ABFC0990FE
:1047900001F018F8CDE90C01DDE9220181F00041BA
:1047A000CDE90A01DDE90C2300F0D6FACDE90E01CE
:1047B000DDE9102300F084FBCDE9160140E0002084
:1047C0004FF08041DDE9282300F0D2FDCDE9100152
:1047D0000020FE49DDE9282300F0CAFDCDE90001F3
:1047E000DDE91C2300F0C4FDCDE90401DDE922234D
:1047F0001046194600F0BCFDCDE90201DDE90423B5
:1048000000F0F6FECDE9060100F074FA0890FFF71B
:1048100069FC099000F0D6FFCDE90C01DDE9220129
:1048200081F00041CDE90A01DDE90C2300F0E0FE52
:10483000CDE90E01DDE9102300F042FBCDE91601C0
:10484000DDE9160100F056FA0C90FDF7B5FF4FF0C8
:1048500080410D9001F00CF9DD490E9001F008F94E
:104860000F9000F0AFFFDB4ADB4BCDE9100100F009
:1048700027FBDA4A03C200221346DDE9260100F0D5
:1048800075FE41D200204FF08041DDE9262300F083
:104890006FFDCDE910010020CC49DDE9262300F0B1
:1048A00067FDCDE90001DDE91A2300F061FDCDE9E6
:1048B0000401DDE920231046194600F059FDCDE939
:1048C0000201DDE9042300F093FECDE9060100F0CA
:1048D00011FA0890FFF706FC099000F073FFCDE98C
:1048E0000C01DDE9200181F00041CDE90A01DDE99B
:1048F0000C2300F031FACDE90E01DDE9102300F0C0
:10490000DFFACDE9140140E000204FF08041DDE9FD
:10491000262300F02DFDCDE910010020AB49DDE993
:10492000262300F025FDCDE90001DDE91A2300F082
:104930001FFDCDE90401DDE920231046194600F0F2
:1049400017FDCDE90201DDE9042300F051FECDE9B8
:10495000060100F0CFF90890FFF7C4FB099000F0C2
:1049600031FFCDE90C01DDE9200181F00041CDE905
:104970000A01DDE90C2300F03BFECDE90E01DDE983
:10498000102300F09DFACDE91401DDE9140100F0D7
:10499000B1F90C90FDF710FF4FF080410D9001F040
:1049A00067F88B490E9001F063F80F9000F00AFF52
:1049B000884A894BCDE9100100F082FA884A03C287
:1049C00000221346DDE9240100F0D0FD41D2002091
:1049D0004FF08041DDE9242300F0CAFCCDE910014D
:1049E00000207A49DDE9242300F0C2FCCDE9000172
:1049F000DDE9182300F0BCFCCDE90401DDE91E234C
:104A00001046194600F0B4FCCDE90201DDE90423AB
:104A100000F0EEFDCDE9060100F06CF90890FFF71B
:104A200061FB099000F0CEFECDE90C01DDE91E012D
:104A300081F00041CDE90A01DDE90C2300F08CF999
:104A4000CDE90E01DDE9102300F03AFACDE91201BB
:104A500040E000204FF08041DDE9242300F088FC95
:104A6000CDE9100100205949DDE9242300F080FC44
:104A7000CDE90001DDE9182300F07AFCCDE904015D
:104A8000DDE91E231046194600F072FCCDE9020153
:104A9000DDE9042300F0ACFDCDE9060100F02AF9C0
:104AA0000890FFF71FFB099000F08CFECDE90C0188
:104AB000DDE91E0181F00041CDE90A01DDE90C23A9
:104AC00000F096FDCDE90E01DDE9102300F0F8F9C4
:104AD000CDE91201DDE9120100F00CF90C90FDF7AF
:104AE0006BFE4FF080410D9000F0C2FF38490E90F0
:104AF00000F0BEFF0F9000F065FE364A364BCDE960
:104B0000100100F0DDF9374A03C20022364B334969
:104B100003C900F0F1FB22D20022344B2F4903C914
:104B200000F024FD1BD200222F4B2D4903C900F0B9
:104B3000E3FB14D200222D4B294903C900F016FDD6
:104B40000DD20022284B274903C900F0D5FB06D21D
:104B50000022264B234903C900F008FD7ED37021B3
:104B60002348FDF7F0FD00BF80212148FDF71EFD21
:104B70000128F9D161211E48FDF7E5FD00BF802124
:104B80001B48FDF713FD0128F9D167211848FDF7EF
:104B9000DAFD00BF80211648FDF708FD0128F9D194
:104BA00065211348FDF7CFFD00BF80211048FDF7B8
:104BB000FDFC0128F9D120210D48FDF7C4FD00BFFF
:104BC00080210B48FDF7F2FC012813E000001040A3
:104BD000000034434AD8124DFB2109402800002030
:104BE000300000203800002000006940000069C04B
:104BF00000440040E4D162212848FDF7A4FD00BF35
:104C000080212648FDF7D2FC0128F9D16F212348E5
:104C1000FDF799FD00BF80212048FDF7C7FC012862
:104C2000F9D178211D48FDF78EFD00BF80211B487A
:104C3000FDF7BCFC0128F9D1FF211848FDF783FDE1
:104C400000BF80211548FDF7B1FC0128F9D1FF21F3
:104C50001248FDF778FD00BF802100E00FE00F480B
:104C6000FDF7A4FC0128F7D1FF210C48FDF76BFDEF
:104C700000BF80210948FDF799FC0128F9D10848B7
:104C800003C8CDE90201074803C8CDE90001064881
:104C90000CC806A0FBF7CCFA34B010BD00440040AD
:104CA000380000203000002028000020BDC7B6C812
:104CB0003A254C662020202020254C6620202020EC
:104CC0002020254C660D0A0010B500290AD008786E
:104CD000002807D005487844FBF71EFF002801D0C4
:104CE000002010BD0248784410BD0000C61200002C
:104CF000BE12000021F00042A2F16052B2F5801F06
:104D000001F0004328BFD2F17F6C0BD95FEA001C91
:104D100043EAC20242EB507018BF704728BF20F030
:104D200001007047B2F5801FBCBF184670474FEABC
:104D3000410C1CF5001F02D2084600F060BF70B5A0
:104D400000F0C0FB00000089FFF7F6BF4FF0004005
:104D5000A0F580007047000010B591EA030F48BF2E
:104D600083F0004300F14C84841A71EB030C05D2EC
:104D7000121943EB0C03001B61EB0C01DFF824E17B
:104D80004FEA1154A4EB135C1EEA430F18BF9EEACE
:104D9000445F73D023EA0E03DCF1200E21EA0451B4
:104DA00043F4801332D322FA0CFE10EB0E0023FAE8
:104DB0000CFE41EB0E01CCF1200E03FA0EFE10EBBF
:104DC0000E0051F10001B1F5801FCCF1200E32D25E
:104DD00001EB045112FA0EF2BDE8104058BF7047C3
:104DE000401C38BF5FEA420218BF7047002814BF5A
:104DF00020F0010041F100014FEA410313F5001FCB
:104E000038BF7047A1F1C04100F0AABB012A43EBB3
:104E10000302ACF1200CDCF11F0E32BF4FF0000E8C
:104E200023FA0CF310EB030041EB0451B4EB115FD8
:104E3000D0D0A1EB045101F5801149085FEA3000A0
:104E400001EB04510ED350F1000038BF12FA0EFEF0
:104E500008D1BDE81040C9E7401C38BF5FEA4202F4
:104E6000CAD1C3E7BDE810404FEA410313F5001F64
:104E700038BF7047A1F1C04100F072BB9EEA445FA9
:104E800008D011EA5E0FBDE8104004BF01F00041F8
:104E900000207047BDE8104070B500F013FB00BF64
:104EA00064FBBE3E0000E0FF491058BFC1F1404125
:104EB0005B1058BFC3F140438B42EFF30080704753
:104EC0002DE9C04130B4DFF8A0C23CEA111418BF8C
:104ED0003CEA131400F0EC8081EA03051CEA11148B
:104EE00044EAD57418BF1CEA131500F0C780A4EB80
:104EF00005044FF0004545EAC12145EAC32341EAD4
:104F0000505143EA525304F17F74994204F500343E
:104F10004FEAC0204FEAC22208BF904200F09C80B6
:104F20004FEA13650FF24016765D4FEA134506FB14
:104F300005F7C7F1807706FB07F74FEAD737A7FBDE
:104F400003687642C8F58038A7FB06CE38BFA8F1C3
:104F5000010807FB08E64FF0000EA6FB028CE6FBFB
:104F600003CEDCF1000CCEF1004E38BFAEF1010EE5
:104F7000A6FB0C584FF000074FF00005E6FB0E872C
:104F8000A1FB08C6A0FB07CE16EB0E0645F10005F7
:104F9000E1FB076515F1E04E7EBFA4F580345FEAC2
:104FA00046066D4116F1800745F100054FEA1727C7
:104FB0004FEA066647EA0567A6F1DE46B6F1805F6E
:104FC0004FEA15251FD9384624F0010C05EBC471B2
:104FD000BCF1FE6F01EB0C1102D8F0BCBDE8008102
:104FE00024425CBF01F5801E9EEAC47F02D4F0BC5F
:104FF000BDE80081244238D4F0BCA1F1C041BDE835
:10500000004100F0ADBA4FEAD22242EA43524FEAE1
:10501000D323A7FB02864FEAD02040EA415007FB8A
:1050200003661EEA0E0F4FEAD12105FB026658BF48
:10503000A6EB0056B6EB00564FEA520E4EEAC37E80
:1050400018EB0E0E56EB530EBDD518EB02085E4161
:105050007F1C55F10005B6E74FF480154FF00007AF
:105060004FF000064FF00008ADE7F0BC4FF0000035
:1050700001F1C04101F00041BDE8008111EA0C1FBF
:105080000CEA131500D00CE013EA0C1F00F0258089
:105090004FF00000F0BC81EA030101F00041BDE8DF
:1050A0000081F0BCBDE8004181EA030100F058BA7C
:1050B000F0BCBDE8004170B500F004FA097EFC3E8A
:1050C00000F007B881EA03014FF0000001F0004151
:1050D000704781EA030100F043BAF0BCBDE800412B
:1050E0004FF0000021497047FFFDFBF9F7F5F4F29E
:1050F000F0EEEDEBE9E8E6E4E3E1E0DEDDDBDAD873
:10510000D7D5D4D3D1D0CFCDCCCBCAC8C7C6C5C4D0
:10511000C2C1C0BFBEBDBCBBBAB9B8B7B6B5B4B3E7
:10512000B2B1B0AFAEADACABAAA9A8A8A7A6A5A4D2
:10513000A3A3A2A1A09F9F9E9D9C9C9B9A99999896
:105140009797969595949393929191908F8F8E8E39
:105150008D8C8C8B8B8A89898888878786858584C6
:1051600084838382828181800000FF070000F87FB2
:1051700051EA030C17D41CF5801F58BFBCF5801FE3
:1051800000F10680994218BF704708BF90427047EF
:1051900007D711F5801F58BF13F5801F19D4994206
:1051A0007047894270471CF5801F08D5BCF5801FE9
:1051B000F7D58B4218BF704708BF824270474FF443
:1051C000001C1CEB410F38BF1CEB430F01D28B427C
:1051D000704770B500F076F9922449004FF0005105
:1051E0004FF08053FFF760BE4FEA41034FEA53533D
:1051F000A3F58063D3F11E03C8BFD3F1210C0CDDEE
:105200004FF0004242EAC12242EA505232FA03FC15
:105210008CEAE17CACEBE1707047102BC4BF00203E
:10522000704703F5787CBCF1FF3F04D06FF000427B
:1052300082EA2100704770B500F044F94992248059
:1052400000207047F2E700004FEA1153A3F5806396
:10525000D3F11E03A8BFD3F1200C08DB4FF00042AE
:1052600042EAC12252EA505232FA03F07047094230
:105270000BD4102BC4BF0020704703F5787CBCF121
:10528000FF3F05D04FF0FF3070474FF000007047F0
:1052900070B500F017F900BF4992248000207047D4
:1052A000F0E710F0004248BF4042B0FA80F310FA35
:1052B00003F10AD0C3F11D0303F580634FEA4150A7
:1052C00002EB035202EBD12170474FF00000704710
:1052D000B0FA80F310FA03F10AD0C3F11D0303F50D
:1052E00080634FEA41504FEA035202EBD1217047ED
:1052F0004FF000007047000051EA030C17D41CF572
:10530000801F58BFBCF5801F00F10680994218BF6E
:10531000704708BF9042704707D711F5801F58BFEC
:1053200013F5801F19D499427047894270471CF5C4
:10533000801F08D5BCF5801FF7D58B4218BF70477A
:1053400008BF824270474FF4001C1CEB410F38BF6E
:105350001CEB430F01D28B42704770B500F0B2F8DE
:10536000922449004FF000514FF08053FFF79CBD4D
:10537000DFF848C170B51CEA111E1EBF1CEA1315E8
:105380009EEA0C0F95EA0C0F00F06F8081EA03048F
:1053900023EA4C134EEAD47E21EA4C1141F48011E9
:1053A00043F48013AE44A1FB024CA0FB0365AEF1B5
:1053B0007F7E361955EB0C05A1FB034C4CF1000325
:1053C000A0FB021C16EB0C06654153F100030942D9
:1053D00018BF46F0010613F4007F0BD14FEA0331EA
:1053E0004FEA0530340341EA155140EA16506FF098
:1053F00003020AE04FEAC3214FEAC520F40241EA62
:10540000555140EA56506FF0020202EB2E4201EB7A
:10541000025585EACE710AD05FEA440C18BF24F029
:10542000004450F1000041F1000120EAD47040F244
:10543000FE7C624500D270BDA84214BF4FF080448C
:105440004FF04044002E08BF0024BEF1806FA8BF7B
:10545000A1F1C041BDE8704080F282804FF00000B1
:1054600001F1C04101F0004170479EEA0C0F0CEAC7
:10547000131518BF95EA0C0F06D04FF0000081EA13
:10548000030E0EF0004170BD00F01CF88900013ED3
:1054900000F007B800F009B84FEA430C5FEA5C5C23
:1054A00008D081EA030100F05BB84FEA410C5FEAE3
:1054B0005C5CF6D14FF00000014970470000FF0727
:1054C0000000F87F0EF1020E2EF0030E5EF8046B62
:1054D000364205D4012A43EB030515F5001F12D807
:1054E000012841EB010C1CF5001F0CD80ED14FEA2E
:1054F000D17C15F5001F0CEB4C0C0CF1020C08BF15
:105500004CEBD37C04E04FF0080C01E04FEAD37C75
:105510000CEB4C0526FA05F606F00706B6F1040C6E
:1055200006D20EEB860CBDE870404CF0010C6047D3
:10553000DFE80CF0090B02024FF000414FF00000D1
:10554000A1F5002170BD19461046012851EB010458
:1055500018BFD4F5001484BF002001F0004170BDD5
:105560000808A0F500114FEA3101704753EA010C19
:1055700017D41CF5801F58BFBCF5801F00F10680B2
:105580008B4218BF704708BF8242704707D713F598
:10559000801F58BF11F5801F19D48B4270479B4262
:1055A00070471CF5801F08D5BCF5801FF7D59942C0
:1055B00018BF704708BF904270474FF4001C1CEBA7
:1055C000430F38BF1CEB410F01D2994270470FB413
:1055D0000CBC03BCFFF7C1BE91EA030F10B581F00C
:1055E00000413FF5C1AB83F0004300F009B8000073
:1055F00010B591EA030F48BF83F000433FF5B4AB09
:10560000841A71EB030C07D212198CF0004C43EB97
:105610000C03001B61EB0C01DFF8A4E14FEA11540D
:10562000A4EB135C1EEA430F18BF9EEA445F00F030
:10563000B08023EA6E03524221EA0451C3EB6E03A9
:1056400038BF5B1EDCF1200E25D322FA0CFE10EBD6
:105650000E0043FA0CFE41EB0E01CCF1200E03FAD2
:105660000EFE10EB0E0051F10001CCF1200E29D4FA
:1056700012FA0EF201EB0451BDE8104058BF70471A
:10568000401C1CBFB2F1004F704700280CBF491CE2
:1056900020F00100704712EB020E43EB030218BF2B
:1056A0004FF0010E4EEA4202ACF1200CDCF11E0E6E
:1056B00054D943FA0CFE10EB0E0051F1FF31CCF13E
:1056C0001E0ED5D50EF1010E12FA0EFE404141EB31
:1056D000010101EB445C5FEA5C5C10D910EBDE7009
:1056E00001EB045138BFBEF1004FBDE8104018BFB8
:1056F000704700280CBF491C20F00100704730D2D1
:105700004FEAD42C11F5001124F400641BD0B1FA37
:1057100081F20B3AA41AA41ED2F12003914030FA70
:1057200003F31943904001EBCC71002C01EB0451C1
:10573000BDE81040A8BF704701F1C0414FF0000024
:1057400001F000417047B0FA80F310FA03F100D184
:1057500010BDE41A173C4805C90AE4E701EB0451FF
:1057600010BD491001EB0451BDE810404FEA300074
:1057700002E04FF0000170474A0008BF0042F8D035
:10578000B2F5001F28BF704701F000414FF0000044
:1057900070479EEA445F07D011EA5E0FBDE81040F3
:1057A00004BF002100207047BDE8104070B5FFF72E
:1057B00089FE00BF40DFF63E83F00041104670478F
:1057C0000000E0FF43004FEAD30C4FEA3C0C43409B
:1057D0001FBF40070CF1605113F0FE4F70471CF0E3
:1057E000006F03D100200CF0004170470CF0004323
:1057F00043EA507010B540EACC0000F0BAF900BF9F
:10580000000000924FEA0001FFF7AABE4FF00041EE
:105810004FF00000A1F500217047000090EA010F51
:1058200048BF81F0004100F17E82421A3CBF801ADD
:1058300089184FEAD0524FF07F4C1CEA410FA2EB7F
:10584000D15318BF9CEA026F00F03B804FF0004C30
:105850004CEA00204CEA012121FA03FC10EB0C0C6D
:105860001ED202F1FF325FEA1C2040EBC25038BF6B
:1058700070471CF07F0F4FEA400C18BFBCF17F4F00
:1058800038BF7047C3F12003994008BF20F00100E2
:10589000BCF17F4F38BF7047A0F1C04000F0AFB9F6
:1058A0004FEA3C00000A40EBC25028BF1CF0FF0F3B
:1058B0004FEA400CE6D018BFBCF17F4F38BF7047AD
:1058C000EAE79CEA026F05D010EA5C0F08BF00F01F
:1058D0000040704710B500F04CF900BF64FBBE3EBD
:1058E000014800F090BA00BF0000C07F4FF47F0C69
:1058F0001CEAD0121EBF1CEAD11392EA0C0F93EAE5
:105900000C0F00F0858090EA010F48BF42F48072CE
:1059100040F4000C41F400002CF07F4120F07F4067
:1059200000B58142A2EB03020FF2081CACEB504E13
:10593000C0F100009EF800E04FEA4E0E00FB0EFCA6
:1059400038BF49004FEA2C1C02F5FA020CFB0EF39B
:105950004FEACE1E4FEA112C4FEAC1210EEB635ED7
:1059600042EB22420EFB0CFC4FEA1C5300FB0311DE
:105970004FEA112C4FEA01310EFB0CFC4FEADC4CD4
:1059800000FB0C11C14228BF09184CEB03335DF832
:1059900004EB10EB410143EBC250B2F57C0F38BF72
:1059A000704729D512F0F00F1CBF00F1C04000F085
:1059B00000407047008182838485868788898B8C2C
:1059C0008D8E8F919293959697999A9C9D9FA0A268
:1059D000A3A5A7A8AAACAEB0B2B3B5B7B9BCBEC0B8
:1059E000C2C5C7C9CCCED1D4D7D9DCDFE2E6E9EC59
:1059F000F0F3F7FAFE0000004FEA400C0CF1807C57
:105A0000BCF17E4F28BF7047B0F1C04000F0F7B83E
:105A100090EA010F0CEAD11348BF42F4807262454C
:105A200038BF634507D213F47F0F16D080EA010018
:105A300000F00040704710B500F09BF8097EFC3E76
:105A400000F005B880EA010000F00040704780EAED
:105A5000010000F0004000F0D2B812F47F0F04BF44
:105A60000248704780EA010000F0C9B80000C07F1A
:105A70004FF47F0C1CEAD0121EBF1CEAD11392EA2D
:105A80000C0F93EA0C0F00F0478090EA010F48BF1B
:105A900042F480724FF0004C4CEA00204CEA0121A5
:105AA00002EB0302A0FB0113A2F50002002918BFBC
:105AB00043F001035B0028BF4FEA330342EB22426D
:105AC0005FEA132C4CEBC2502EBFBCEB436FB2F518
:105AD0007C0F70474FEA036CBCF1004F08BF20F009
